:020000040800F2
:10000000000400201D030008513501084135010896
:100010006135010871350108813501081F030008A9
:100020001F0300081F0300081F03000871E90008F0
:100030001F0300081F0300081F030008F1CB00087E
:100040001F0300081F030008F1C1000861C2000877
:100050001F0300081F030008019D0008519D0008B0
:10006000A19D0008F19D0008419E0008D1A700084D
:1000700001A8000831A8000861A8000891A800089C
:10008000C1A80008F1A8000821A600081F03000865
:100090001F0300081F0300081F030008919E0008AB
:1000A000F1A0000801A1000821A1000831A1000869
:1000B00051A1000871A100081F030008D1B1000878
:1000C000F1B1000821B2000841B200081F03000886
:1000D0001F03000891A000081F0300081F03000869
:1000E000819F0008A1C200081F0300081F03000829
:1000F0001F0300081F0300081F03000821A90008B0
:100100001F03000841C7000891A100081F03000851
:10011000B1A000081F0300081F0300081F03000808
:1001200051A9000881A90008B1A90008E1A90008A7
:1001300011AA00081F0300081F0300081F0300087E
:100140001F0300081F0300081F030008F1BD00087B
:1001500041AA000871AA0008A1AA0008D1A00008BD
:100160001F0300081F0300081F0300081F030008E7
:100170001F0300081F0300081F0300081F030008D7
:100180001F0300081F0300081F0300081F030008C7
:100190001F0300081F0300081F0300081F030008B7
:1001A0001F0300081F0300081F0300081F030008A7
:1001B0001F0300081F0300081F0300081F03000897
:1001C0001F0300081F0300081F0300081F03000887
:1001D0001F0300081F0300081F0300081F03000877
:1002000072B6374880F30888364880F30988364844
:100210003649086040F20000CCF200004EF634711E
:10022000CEF200010860BFF34F8FBFF36F8F40F233
:100230000000C0F2F0004EF68851CEF200010860D6
:10024000BFF34F8FBFF36F8F4FF00000E1EE100A46
:100250004EF63C71CEF200010860062080F314884F
:10026000BFF36F8F08F034F912F0C2FB4FF0553036
:100270001F491B4A91423CBF41F8040BFAE71D4954
:10028000184A91423CBF41F8040BFAE71A491B4A4D
:100290001B4B9A423EBF51F8040B42F8040BF8E79F
:1002A00000201849184A91423CBF41F8040BFAE774
:1002B00008F026F908F014F9144C154DAC4203DA95
:1002C00054F8041B8847F9E719F02AFD114C124D28
:1002D000AC4203DA54F8041B8847F9E708F008B980
:1002E00000040020002400200000000808ED00E0C9
:1002F000000000200004002070F402080024002008
:100300009060002090600020701C0120E001000837
:10031000E0010008E0010008E001000870E700F0DB
:1003200000F8FEE72DE9F04F2DED108AC1F80CD052
:10033000C3689D46BDEC108ABDE8F08F0DF050FEFD
:10034000002383F311882846A04700200DF0E0FC2D
:10035000FEE70DF03DFE0DF0EBFA0DF041FE00DF83
:10036000FEE70000000000002DE9F84FB84B21F037
:1003700000469E4204460D468A4616DDB54B9E4217
:100380000BDC08D0BAF1000F40F3BD8094A1D1E995
:100390000001BDE8F88F0028F4D022462B46204605
:1003A000294606F04DFDBDE8F88FAB4B9E4200F3A9
:1003B000AF80A3F1DE739E4240F396804FF0FF3B87
:1003C00022462B462046294606F0F0FE02460B4602
:1003D0008046894606F0EAFE83A3D3E90023064659
:1003E0000F4606F0E3FE82A3D3E9002306F028FDC2
:1003F00032463B4606F0DAFE7FA3D3E9002306F03F
:100400001FFD32463B4606F0D1FE7DA3D3E9002313
:1004100006F016FD32463B4606F0C8FE7AA3D3E945
:10042000002306F00DFD32463B4606F0BFFE78A3E2
:10043000D3E9002306F004FD42464B4606F0B6FE23
:1004400075A3D3E90023804689463046394606F035
:10045000ADFE73A3D3E9002306F0F0FC32463B4621
:1004600006F0A4FE70A3D3E9002306F0E7FC3246B1
:100470003B4606F09BFE6EA3D3E9002306F0DEFCAC
:1004800032463B4606F092FE6BA3D3E9002306F00A
:10049000D5FC32463B4606F089FEBBF1FF3F0246E3
:1004A0000B464046494652D06C4E06F0C9FC06EB5E
:1004B000CB0B22462B4606F079FEDBE9082306F03B
:1004C000BDFC22462B4606F0B9FC02460B46DBE992
:1004D000000106F0B3FCBAF1000FBFF664AF01F102
:1004E00000431946BDE8F88F55A3D3E9002306F071
:1004F000A7FC5B4B002207F0E9F800283FF45EAF51
:10050000204629464FE750A1D1E90001BDE8F88F08
:1005100000F000F9534B9E4204460D4625DCA3F53E
:1005200050239E424CDC02460B4606F089FC4C4BA5
:10053000002206F083FC02460B462046294614465C
:100540001D464FF0000B00224FF0804322E006F0E2
:1005500077FC22462B4606F029FE02460B46204633
:10056000294606F06BFCBDE8F88F3F4B9E421CDA33
:100570003E4B002206F062FC02460B46204629460E
:1005800014461D460022394B4FF0020B06F00EFEBA
:10059000334B002206F054FC02460B462046294607
:1005A00006F02EFF04460D460AE722462B46304948
:1005B000002006F025FF4FF0030B04460D46FFE632
:1005C000274B002206F03AFC02460B4620462946FD
:1005D0004FF0010B14461D46DAE700BFAFF3008071
:1005E000182D4454FB21F93F11DA22E33AAD903F34
:1005F000EB0D76244B7BA93F513DD0A0660DB13F5A
:100600006E204CC5CD45B73FFF8300922449C23FC1
:100610000D5555555555D53F2F6C6A2C44B4A2BF86
:100620009AFDDE522DDEAD3F6D9A74AFF2B0B33F4E
:10063000711623FEC671BC3FC4EB98999999C93FC6
:100640009C7500883CE4377E182D4454FB21F9BF8B
:10065000FFFF0F440000F07FFFFFDB3FB8D0020830
:100660000000F03FFFFFF23F008003400000F83F32
:100670000000F0BF254A21F00043934223DD30B54E
:10068000234A934287B009DD02460B4606F0D6FBAB
:1006900002460B461046194607B030BD02AA02F0CA
:1006A000F3FB00F00304012C11D0022C23D0CCB1B9
:1006B0000124DDE90423DDE90201009404F0E4FDF6
:1006C00002460B46E6E70022002304F095B8DDE978
:1006D0000423DDE90201009404F0D6FD024601F195
:1006E0000043D7E7DDE90423DDE9020104F084F8E3
:1006F00002460B46CEE7DDE90423DDE9020104F002
:100700007BF8024601F10043C4E700BFFB21E93F4B
:10071000FFFFEF7F21F00041704700BF00000000A5
:10072000C1F30A5CF8B5ACF2FF35132D02460B4657
:100730000C4606462FDC002D1DDB354F2F4101EA0C
:10074000070C5CEA000C2BD02FA3D3E9002306F0A2
:1007500077FB0022002306F0B9FF48B1002C04DA31
:100760004FF4801343FA05F52C4424EA07040026CD
:1007700021463046F8BD24A3D3E9002306F060FBF0
:100780000022002306F0A2FF0028F1D0002C25DB78
:1007900000263446ECE7332D05DDB5F5806F1AD021
:1007A00010461946F8BDACF2134C4FF0FF3727FA4C
:1007B0000CF70742F4D014A3D3E9002306F040FB62
:1007C0000022002306F082FF0028D1D0002C0EDB8F
:1007D00026EA0706CCE706F033FBF8BD24F0004319
:1007E0000C4A1E43002E18BF14460026C0E7142DE5
:1007F00008D00123C5F1340503FA05F5AE1928BF69
:10080000E418E5E70134E3E79C7500883CE4377EB3
:10081000FFFF0F000000F0BFF0B5C1F30A55A5F2CD
:10082000FF3CBCF1130F83B002460B460C468646D4
:100830004FEAD17665DCBCF1000F30DB424941FA6A
:100840000CF103EA0100104361D003EA510352EABC
:10085000030E4FEA51010DD024EA01014FF4802428
:10086000BCF1130F44FA0CF40CBF4FF0004E4FF0E4
:10087000000E0C43354901EBC6062346D6E9004578
:1008800072462046294606F0DBFACDE90001DDE993
:10089000000122462B4606F0D1FA03B0F0BD21F04C
:1008A000004101431946F8D0C3F3130343EA000E95
:1008B000264ACEF1000343EA0E0302EBC606D6E950
:1008C0000067620C1B0B03F40023520443EA02018D
:1008D0000B4602463946304606F0B2FACDE9000131
:1008E00032463B46DDE9000106F0A8FA04F0004478
:1008F00021F00041024641EA04031046194603B0C4
:10090000F0BDBCF1330F06DDBCF5806F18D010468A
:10091000194603B0F0BDA5F213454FF0FF31E94091
:100920000842F4D010EA51024FEA5103A2D04FF02E
:10093000804E20EA03034EFA05F543EA050E99E7D7
:1009400006F07EFAA9E700BFFFFF0F00F8D002080B
:1009500030B5224A21F00043934287B01CDD204A83
:10096000934205DD02460B4606F068FA07B030BD3B
:1009700002AA02F089FA00F00300012814D002282C
:1009800022D0C0B1DDE90423DDE9020103F034FF28
:1009900001F1004107B030BD002400220023009483
:1009A00004F072FC07B030BDDDE90423DDE902018B
:1009B00003F022FFDAE70124DDE90423DDE9020187
:1009C000009404F061FCD1E70124DDE90423DDE9B2
:1009D0000201009404F058FCDAE700BFFB21E93F74
:1009E000FFFFEF7F30B5144A21F00043934287B0F8
:1009F00019DD124A934205DD02460B4606F01EFA47
:100A000007B030BD02AA02F03FFA440004F002042D
:100A1000C4F10104DDE90423DDE90201009404F0DE
:100A2000EBFC07B030BD012400220023009404F049
:100A3000E3FC07B030BD00BFFB21E93FFFFFEF7FC4
:100A400038B520F00044B4F1A14F07EE900A0546F6
:100A50000DDBB4F1FF4F5CDCDFED557A9FED557A8D
:100A60000028D4BF17EE100A17EE900A38BD524B7B
:100A70009C425FDCB4F1445F50DB4FF0FF3267EE25
:100A8000A76ADFED4E4ADFED4E5A9FED4E5A9FEDBD
:100A90004E4A26EEA67AB0EE666AE7EE245A531C5A
:100AA000DFED4A4ADFED4A6AA5EE875AE7EE246A8F
:100AB000DFED485ADFED484AE6EE875AA5EE074AD1
:100AC0009FED465ADFED466AA5EE875AE4EE074AE7
:100AD000DFED445AE4EE876AE5EE075A66EE866A71
:100AE00025EE877A3DD0404B03EB820376EE876A92
:100AF00093ED007A93ED046A96EEA77A002D77EED7
:100B0000677A76EE677A17EE900AAFDA80F00040E7
:100B100038BD77EEA77A17EE900A38BD9FED337A8D
:100B200037EE877AF7EE006AB4EEE67AF1EE10FA65
:100B3000A3DD38BD00F096F82D4B9C4207EE100A5D
:100B400016DCA3F5D0039C4227DCF0EE007AFFEE22
:100B5000006AE7EE276A002237EE277AC6EE877A28
:100B60008DE776EE876AE6EEE77A17EE900A38BDF3
:100B7000204B9C420BDCF7EE087AF7EE006AE7EEBA
:100B8000276A022237EE677AC7EE267A77E7FFEE0A
:100B9000006AC6EE877A032271E7F7EE007A77EEF5
:100BA000676A37EE277A0122C6EE877A67E700BFC9
:100BB000DB0FC93FDB0FC9BFFFFFDF3ED769853CB5
:100BC00059DA4B3D356B883D6E2EBA3D21A215BDDD
:100BD0006BF16EBD95879DBD2549123E388EE3BDF4
:100BE000ABAAAA3ECDCC4CBE08D10208CAF24971CC
:100BF000FFFF973FFFFF1B40194A20F0004393423D
:100C00001DDDB3F1FF4F06DB07EE900A77EEE77AC2
:100C100017EE900A704700B583B0694603F01EFCDA
:100C200000F00302012A019900980BD0022A11D08A
:100C30006AB1012205F09EF903B05DF804FB0021C2
:100C400004F0C0BD05F096F980F00040F4E704F030
:100C5000B9FDF1E704F0B6FD80F00040ECE700BF1D
:100C6000D80F493F20F00040704700BF1B4A20F0DA
:100C7000004393421EDDB3F1FF4F06DB07EE900AFF
:100C800077EEE77A17EE900A704700B583B06946B1
:100C900003F0E4FB00F00300012801990ED00228C4
:100CA00015D078B1009804F08DFD80F0004003B0BD
:100CB0005DF804FB0021002205F05CB9009804F007
:100CC00081FDF4E70098012205F054F9EFE7009860
:100CD000012205F04FF980F00040E8E7D80F493FC6
:100CE000114A20F0004393421ADDB3F1FF4F06DBB7
:100CF00007EE900A77EEE77A17EE900A704700B594
:100D000083B0694603F0AAFB400000F0020201999B
:100D10000098C2F1010205F07BF903B05DF804FB15
:100D20000021012205F074B9DA0F493FF8B50446F5
:100D30000D4600F0CDFB124B93F90030013306460F
:100D40000F460FD022462B462046294606F0C8FC07
:100D500040B920462946FFF7DDFC0A4B002206F089
:100D6000B5FC10B930463946F8BD06F041FF0346E0
:100D700021221A600448BDE8F84005F07BBC00BFA2
:100D8000002400200000F03F68F1020800F0D0BD10
:100D9000F8B504460D4600F093FE154B93F900306C
:100DA000013306460F4610D022462B4620462946E0
:100DB00006F096FC48B920462946FFF7ABFC0AA38B
:100DC000D3E9002306F082FC10B930463946F8BD5D
:100DD00006F00EFF074F00262223036039463046F7
:100DE000F8BD00BFAFF300807DF8B98FCE338640E9
:100DF000002400200000F07FF8B504460D4600F006
:100E00000BFF1B4B93F90030013306460F4614D0FD
:100E10002046294605F028FC78B111A3D3E9002328
:100E20002046294606F052FC88B90FA3D3E90023D7
:100E30002046294606F02CFC10B930463946F8BD4C
:100E400006F0D6FE2223002600270360F5E706F011
:100E5000CFFE2223074F03600026EEE7AFF30080AA
:100E6000EF39FAFE422E864051302DD5104987C009
:100E7000002400200000F07FF8B504460D4601F084
:100E800093F8174B93F90030013306460F461AD0FA
:100E900022462B462046294606F022FC98B900221D
:100EA00000232046294606F011FC60B900220023E9
:100EB0002046294606F0E2FB40B106F099FE094FB4
:100EC00022230026036030463946F8BD06F090FE26
:100ED000034621221A600448BDE8F84005F0CABB69
:100EE000002400200000F0FF68F102082DE9F8431B
:100EF0001D4606460F46144601F05AFA574B93F921
:100F000000300133804689462AD022462B462046AF
:100F1000294606F0E5FB18BB32463B4630463946CB
:100F200006F0DEFB002841D100220023304639467E
:100F300006F0A4FBC0B1002200232046294606F09B
:100F40009DFB00283AD12046294605F08DFB38B19B
:100F5000204629460022002306F09AFB002859D19A
:100F600040464946BDE8F8834046494605F07CFBCB
:100F700060B3002200234046494606F07FFB00286C
:100F8000EED03046394605F06FFB0028E8D0204609
:100F9000294605F069FB0028E2D006F029FE22234D
:100FA0004FF000084FF000090360D9E720462946BA
:100FB0000022002306F062FB0028D1D0DFF8A090C9
:100FC0004FF0000840464946BDE8F88330463946B0
:100FD00005F04AFB0028CCD02046294605F044FB0A
:100FE0000028C6D042464B464046494606F078FBAC
:100FF00030BB06F0FDFD034622221A60304639461A
:101000000022002306F044FB4FF0000858B9DFF837
:101010005490A5E706F0ECFD2123DFF84C90036027
:101020004FF000089CE720462946FFF7F5FB2246D3
:101030002B4606F023FB0028E9D1DFF82C908FE740
:1010400006F0D6FD0022002321210160104619463A
:1010500006F0D6F98046894682E700BF00240020CA
:101060000000F03F0000F07F0000F0FFF8B50646FA
:101070000F4602F025F9124B93F900300133044674
:101080000D4602D005F0F0FA10B120462946F8BD11
:101090003046394605F0E8FA0028F6D006F0A8FDFB
:1010A000034622221A60304639460022002306F009
:1010B0000DFB002408B1034DE7E7034DE5E700BF52
:1010C000002400200000F07F0000F0FFF8B5044687
:1010D0000D4602F0BDF9134B93F90030013306467B
:1010E0000F460DD022462B462046294606F0F8FA38
:1010F00030B9204629460022002306F0C9FA10B96B
:1011000030463946F8BD06F073FD00220023212148
:1011100001601046194606F073F906460F46304640
:101120003946F8BD0024002010B52DED028B08EEE5
:10113000100A02F043FA144B93F9003001330446CD
:1011400011D0B4EE488AF1EE10FA0CD618EE100A5F
:10115000FFF788FD07EE100AF7EE007AB4EEE77AA3
:10116000F1EE10FA03DCBDEC028B204610BD06F058
:101170003FFDBDEC028B03462122BDE81040034831
:101180001A6005F095BC00BF0024002068F1020839
:1011900002F020BB10B52DED028B08EE100A02F014
:1011A000C5FB134B93F900300133044611D0B4EE64
:1011B000488AF1EE10FA0CD618EE100AFFF752FD2D
:1011C000DFED0C7A07EE100AB4EEE77AF1EE10FAD2
:1011D00003DCBDEC028B204610BD06F009FDBDEC22
:1011E000028B22234FF0FF440360204610BD00BF56
:1011F00000240020FCD4B24210B52DED028B08EE85
:10120000100A02F00FFC154B93F90030013304462D
:1012100012D018EE100A05F0FBFB68B1DFED107A72
:10122000B4EEE78AF1EE10FA10DCDFED0E7AB4EEE0
:10123000E78AF1EE10FA03D4BDEC028B204610BD14
:1012400006F0D6FC222300240360F5E706F0D0FC6C
:1012500022234FF0FF440360EEE700BF002400208C
:101260008071B142B5F1CFC208B52DED028B08EE09
:10127000100A02F0CFFC154A92F900200132034611
:1012800013D0B4EE488AF1EE10FA0ED6B5EEC08A4D
:10129000F1EE10FA09DCB5EE408AF1EE10FA08D151
:1012A00006F0A6FC22220A4B0260BDEC028B184617
:1012B00008BD06F09DFCBDEC028B034621221A609E
:1012C0000448BDE8084005F0F3BB00BF002400203F
:1012D000000080FF68F1020810B52DED048B08EEC8
:1012E000900A08EE101A02F0A7FD484B93F900305F
:1012F000013304461FD0B4EE488AF1EE10FA1AD634
:10130000F4EE688AF1EE10FA5AD69FED419AF4EEA7
:10131000498AF1EE10FA12D1B4EE498AF1EE10FAD0
:1013200029D018EE100A05F073FB20B1B4EEC98A7B
:10133000F1EE10FA4ED4BDEC048B204610BD05F042
:1013400067FBF0B107EE904AF5EE407AF1EE10FA45
:10135000F1D118EE900A05F05BFB0028EBD018EEF7
:10136000100A05F055FB0028E5D006F041FC2223C9
:1013700000240360DFE7BDEC048B4FF07E54204671
:1013800010BD18EE900A05F043FB0028DAD018EEE5
:10139000100A05F03DFB0028D4D007EE904AF4EE89
:1013A000677AF1EE10FA28D606F022FCF5EEC08A34
:1013B0002223F1EE10FA036012D44FF0FF44BAE793
:1013C000B5EE408AF7EE007AF1EE10FA08BF17EE9C
:1013D000904AB0E706F00CFC21230E4C0360AAE70C
:1013E00018EE100A05F068FB07EE900AF4EE487A52
:1013F000F1EE10FAE1D0074C9DE706F0F9FBC9EEDB
:10140000097A2123036017EE904A94E70024002014
:1014100000000000000080FF38B5054603F052F9D7
:10142000124B93F900300133044602D005F0F0FA74
:1014300008B1204638BD284605F0EAFA0028F8D061
:1014400006F0D6FB06EE905ADFED097A9FED097A99
:10145000F5EEC06AF1EE10FAD4BF17EE104A17EE9F
:10146000904A22230360204638BD00BF002400209C
:101470000000807F000080FF08B52DED028B08EE94
:10148000100A03F0B1F9104B93F9003001330BD07F
:10149000B4EE488AF1EE10FA06D6DFED0C8AB4EE0F
:1014A000E88AF1EE10FA02D4BDEC028B08BD06F01A
:1014B0009FFBC8EEA87ABDEC028B034621221A607E
:1014C00017EE900A08BD00BF0024002000000000B5
:1014D0002DE9F84FC24B21F000479F422DED048BC0
:1014E00004460D462CDD07F1404707F580170346FB
:1014F0003B430BD002460B4605F0A0FC02460B46D0
:1015000005F07EFFBDEC048BBDE8F88F98A3D3E90E
:10151000002305F04BFE02460B46204629461446A2
:101520001D4695A3D3E9002305F040FE02460B4675
:101530002046294605F084FCBDEC048BBDE8F88FFD
:10154000A84B9F420E460FDCB7F1795F80F25281C3
:101550008BA3D3E9002305F073FCA34B002206F014
:10156000B5F8002840F0FF8020462946FFF7D2F862
:1015700002460B4600209C4905F060FC9B4B002274
:1015800005F014FE80A3D3E9002304460D4605F0C0
:101590000DFE7FA3D3E9002305F052FC22462B4623
:1015A00005F004FE7CA3D3E9002305F047FC2246A6
:1015B0002B4605F0FBFD7AA3D3E9002305F040FCA0
:1015C00022462B4605F0F2FD77A3D3E9002305F070
:1015D00035FC22462B4605F0E9FD75A3D3E900232F
:1015E00005F02EFC22462B4605F0E0FD72A3D3E960
:1015F000002341EC180B41EC190B2046294605F05D
:10160000D5FD6FA3D3E9002305F018FC22462B4635
:1016100005F0CCFD6CA3D3E9002305F011FC2246B4
:101620002B4605F0C3FD6AA3D3E9002305F006FCB1
:1016300022462B4605F0BAFD6B4B002205F000FC5C
:10164000804689462046294601F002FF684B9F42AA
:1016500082468B4668DC0B46002243EC182B024680
:1016600005F0EEFB42464B468046894651EC190B8D
:1016700005F0C6FE02460B464046494605F096FD7B
:1016800053EC182B8046894651EC180B05F08EFD63
:1016900002460B462046294605F0D0FB53EC182B9A
:1016A00004460D465046594605F0CAFB02460B4615
:1016B0002046294605F0A4FE02460B4605F0C0FB75
:1016C00002460B462CA1D1E9000105F0B7FB02460A
:1016D0000B464046494605F0B1FB53EC182B044637
:1016E0000D4618EE100A194605F0AAFB02460B46F5
:1016F00039A1D1E9000105F0A1FB02460B462046C5
:10170000294605F09BFB02460B4633A1D1E90001B7
:1017100005F094FB002E3FF7F5AEBDEC048B01F114
:1017200000431946BDE8F88F42464B4651EC180B72
:1017300005F066FE52465B4605F038FD52465B46B4
:1017400005F07EFB02460B4605F07AFB0AA3D3E9BF
:10175000002305F073FB02460B4605A1D1E9000109
:1017600005F06CFBD6E720462946CBE6AFF30080B8
:10177000182D4454FB21F93F075C143326A6913CF5
:101780009C7500883CE4377E09F7FD0DE13D023F82
:1017900088B20175E0EF493F3B8F68B52882A43FCE
:1017A0005544880E55C1C93F7D6FEB0312D6D43F17
:1017B000555555555555C53F82922EB1C5B8B33FC5
:1017C00059018D1B6C06E63FC88A599CE52A0040EA
:1017D0004B2D8A1C273A0340182D4454FB21E93F26
:1017E000FFFFEF3FFFFFDF3F0000F03F0000E03F63
:1017F0003233EF3F02460B4605F0D8FC37A3D3E95E
:10180000002306460F4605F0D1FC36A3D3E900239A
:1018100005F016FB32463B4605F0C8FC33A3D3E97E
:10182000002305F00BFB32463B4605F0BFFC31A31D
:10183000D3E9002305F004FB32463B4605F0B6FC35
:101840002EA3D3E9002305F0F9FA32463B4605F012
:10185000ADFC2CA3D3E9002305F0F2FA32463B4657
:1018600005F0A4FC29A3D3E900238046894630462D
:10187000394605F09BFC27A3D3E9002305F0DEFAE7
:1018800032463B4605F092FC24A3D3E9002305F041
:10189000D7FA32463B4605F089FC22A3D3E9002360
:1018A00005F0CCFA32463B4605F080FC0A4B00229C
:1018B00005F0C6FA02460B464046494605F0A0FD33
:1018C00022462B4605F072FC22462B4605F0B8FA5C
:1018D000BDEC048BBDE8F88F0000F03F09F7FD0D6B
:1018E000E13D023F88B20175E0EF493F3B8F68B5AB
:1018F0002882A43F5544880E55C1C93F7D6FEB0334
:1019000012D6D43F555555555555C53F82922EB1E7
:10191000C5B8B33F59018D1B6C06E63FC88A599C78
:10192000E52A00404B2D8A1C273A034000000000A6
:101930002DE9F84F994653425F4F134329F0004E6B
:101940004EEAD373BB42904604460D463DD846420C
:10195000064321F0004A4AEAD676BE4203468B4649
:1019600033D809F1404606F5801616433DD04FEABC
:10197000A97606F002065AEA030346EAD1762CD08D
:101980005EEA020335D0BE4546D0BA4531D0AAEB57
:101990000E0EBEF1747F4FEA2E5339DAB9F1000F03
:1019A00046DA3C3344DA00200021012E58D0022EC2
:1019B00049D086B134A3D3E9002305F03FFA34A31C
:1019C000D3E9002305F03AFA05E022462B464046CB
:1019D000494605F035FABDE8F88F022E10D0032EE7
:1019E000F9D12DA1D1E90001F5E7BDE8F84FFEF7E7
:1019F000BBBCBBF1000F07DB29A1D1E90001EAE77D
:101A000023A1D1E90001E6E727A1D1E90001E2E73E
:101A100023A1D1E90001C8E7F24506F1FF3623D042
:101A2000022E29D8254B03EBC606D6E90601D2E7DC
:101A300042464B462046294605F0E2FCFEF76AFE88
:101A4000FEF792FCB1E710A3D3E9002305F0F6F905
:101A500002460B460EA1D1E9000105F0EFF9BAE705
:101A600001F100431946B6E7022E08D8134B03EBE9
:101A7000C606D6E90001AEE700200021ABE70CA1C5
:101A8000D1E90001A7E700BF075C143326A6A13CFB
:101A9000182D4454FB210940182D4454FB2109C042
:101AA000182D4454FB21F93F182D4454FB21F9BF54
:101AB000182D4454FB21E93F0000F07F28D1020893
:101AC0004D4B2DE9D04321F000449C4206460F4681
:101AD0005BDC4A4B9C4218DD494B9C425FDD494B25
:101AE0009C4277DD484B9C423FDD01339C4239D01C
:101AF0003FA3D3E900231046194605F057FB0646DD
:101B00000F4630463946BDE8D083FEF703FE04F0A9
:101B10006BFB3E4B00228046894605F091F9B4F1FB
:101B2000725F06460F46ECDB42464B46404649464E
:101B300005F03CFB3246804689463B4630463946F6
:101B400005F07EF902460B464046494605F058FC32
:101B50002E4B002205F074F906460F4630463946F2
:101B6000BDE8D0832A4B9842C2D830463946FEF7AA
:101B7000D1FD284B002205F019FB00F04DF8254B54
:101B8000002206460F4605F011FB32463B4605F0A3
:101B90000DFB06460F4630463946BDE8D083FEF7BA
:101BA000B9FD00F039F81B4B002206460F4605F040
:101BB000FDFA32463B4606460F460020154905F021
:101BC0001FFC02460B463046394605F039F90646F9
:101BD0000F4696E7FEF79EFD00F01EF80D4B002223
:101BE00005F0E4FA06460F468BE700BFAFF300802E
:101BF0009C7500883CE4377EFFFFEF7F422ED63F86
:101C0000FFFF3540412E8640CD3386400000F03F37
:101C10007DF8B98F0000E03F2DE9F04FDA4F2DED50
:101C2000028B21F00042BA4283B004460D464FEACF
:101C3000D17612D9D54FBA4229D9C1F31303034340
:101C4000024640F05181002E00F0E8800020002183
:101C500003B0BDEC028BBDE8F08FCD4B9A4253D858
:101C6000CC4B9A4200F2E180B1A3D3E9002305F006
:101C7000E7F8C94B002205F029FD002800F0D580C7
:101C8000C54B00222046294605F0DAF8C8E0AAA391
:101C9000D3E9002305F01AFD002840F02D81A8A308
:101CA000D3E900232046294605F0F2FC0028CDD1D7
:101CB000BA4B204603EBC6062946A3A3D3E900236B
:101CC00005F074FAD6E9082305F0BAF805F01EFD10
:101CD000019005F001FA9EA3D3E9002306460F46C2
:101CE00005F064FA02460B462046294605F0A6F8A0
:101CF00099A3D3E90023804689463046394605F04A
:101D000055FA41EC180B16E0A54B9A42D0D8A34CDB
:101D100004EBC604D4E9002305F090F8C6F1010AEB
:101D200094ED047BAAEB0603804689460193B0EE4E
:101D3000478AF0EE678A53EC182B4046494605F077
:101D40007DF802460B4682468B4605F02FFA84A3A7
:101D5000D3E9002304460D4605F028FA82A3D3E90F
:101D6000002305F06BF822462B4605F01FFA80A3EE
:101D7000D3E9002305F064F822462B4605F016FA55
:101D80007DA3D3E9002305F059F822462B4605F040
:101D90000DFA7BA3D3E9002305F052F822462B4627
:101DA00005F004FA02460B465046594605F046F83F
:101DB000019B0F46064654465D4601463A46002BB7
:101DC0006CD032463B465046594605F0EFF9324654
:101DD0003B4604460D4600204FF0804105F02EF8AA
:101DE00002460B462046294605F00AFB02460B46F2
:101DF00051EC180B05F022F842464B4605F01EF850
:101E000002460B460020644905F018F8019A6FF469
:101E10007F739A4278DB044601EB0255204629463F
:101E200003B0BDEC028BBDE8F08F22462B46204666
:101E3000294605F0BBF94AA3D3E9002306460F461D
:101E400005F0B4F948A3D3E9002304F0F7FF3246C4
:101E50003B4605F0ABF946A3D3E9002304F0F0FFBD
:101E600032463B4605F0A2F943A3D3E9002304F030
:101E7000E5FF32463B4605F099F941A3D3E900233B
:101E800004F0DEFF32463B4605F090F902460B4671
:101E90002046294604F0D2FF0A460146914688466C
:101EA0000A464B462046294605F080F900220646A0
:101EB0000F46404649464FF0804304F0BFFF0246BC
:101EC0000B463046394605F09BFA22462B4604F075
:101ED000B5FF02460B4600202F4904F0AFFF03B0C8
:101EE000BDEC028BBDE8F08F0B4604F0A9FF03B0F8
:101EF000BDEC028BBDE8F08F0DA3D3E900231046A3
:101F0000194605F053F98BE70246019800F57A7AF5
:101F100001EB0A531046194600224FF0B87305F042
:101F200045F903B0BDEC028BBDE8F08FAFF3008044
:101F30009C7500883CE4377EEF39FAFE422E8640DD
:101F400051302DD5104987C0FE822B654715F73FCC
:101F50000000E0FE422EE63F763C7935EF39EA3D5F
:101F6000D0A4BE726937663EF16BD2C541BDBB3E9F
:101F70002CDE25AF6A56113F93BDBE166CC1663F7D
:101F80003E5555555555C53F412E8640FFFFEF7FC5
:101F9000422ED63FFFFF2F3E0000F03F58D10208EF
:101FA000B1A2F03F000000002DE9F04F2DED028BB3
:101FB000B1F5801F85B002460B460F465CDA21F072
:101FC0000044044300F0F8800029C0F23481D84B6B
:101FD000002205F0EBF80B460F46D64902468F4229
:101FE0006FF03504104619463FDC3E15C7F3130762
:101FF00007F51523A6F2FF3603F6647303F4801386
:10200000264406EB135683F07F5383F4401343EAD0
:1020100007010022C84B04F011FFBB1CC3F31303DC
:10202000022B82468B462FDC0022002305F026FB84
:10203000002800F0CC80002E00F04F81304605F0E3
:102040004BF8A7A3D3E9002306460F4605F0AEF8E8
:10205000A5A3D3E9002304460D463046394605F0D2
:10206000A5F802460B462046294604F0E9FE05B0D5
:10207000BDEC028BBDE8F08FAE498F424FF00004FB
:1020800010461946B1DDF0E7A7F5C223A3F27A4363
:10209000019300224FF0804304F0D2FE02460B462B
:1020A0005046594605F0ACF941EC180B304605F0A6
:1020B00013F853EC182BCDE9020151EC180B05F085
:1020C00075F802460B468046894605F06FF888A3EE
:1020D000D3E9002304460D4605F068F886A3D3E94A
:1020E000002304F0ADFE22462B4605F05FF884A3E2
:1020F000D3E9002304F0A4FE22462B4605F056F84F
:1021000081A3D3E9002304F09BFE42464B4605F031
:102110004DF87FA3D3E9002380468946204629460F
:1021200005F044F87CA3D3E9002304F089FE22469D
:102130002B4605F03BF87AA3D3E9002304F080FE98
:1021400022462B4605F032F80B46024649464046E9
:1021500004F076FEC7F5D727019B51371F43002FA8
:102160008046894659DD754B00225046594605F098
:102170001DF852465B4605F019F804460D46002E40
:1021800060D122462B464046494604F059FE53ECA6
:10219000182B05F00BF802460B462046294604F0A2
:1021A0004DFE02460B465046594604F047FE05B028
:1021B000BDEC028BBDE8F08F0022002360490020B7
:1021C00005F01EF905B0BDEC028BBDE8F08F56A3FB
:1021D000D3E900235046594604F0E8FF02460B4677
:1021E0000020564904F02AFE524604460D465B463E
:1021F0005046594604F0DAFF02460B46204629466F
:1022000004F0D4FF04460D46002E52D102460B4680
:102210005046594604F012FE29E7002E40F0928005
:1022200002460B465046594604F008FE53EC182B64
:1022300004F0BCFFB5E704F001FE0022002305F026
:10224000DFF814E726A3D3E90023DDE9020104F057
:10225000ADFF22462B4606460F464046494604F04F
:10226000EFFD53EC182B04F0A1FF1FA3D3E90023CB
:1022700080468946DDE9020104F098FF02460B46DC
:102280004046494604F0DCFD02460B4620462946FE
:1022900004F0D4FD52465B4604F0D0FD02460B46E6
:1022A0003046394604F0CAFD05B0BDEC028BBDE8EE
:1022B000F08F304604F010FF09A3D3E900238046D5
:1022C000894604F073FF08A3D3E9002306460F46AE
:1022D0004046494604F06AFFD6E700200021C6E6E2
:1022E0000000E0FE422EE63F763C7935EF39EA3DCC
:1022F00044523EDF12F1C23FDE03CB966446C73F35
:10230000599322942449D23F935555555555E53F4D
:102310009FC678D0099AC33FAF788E1DC571CC3F58
:1023200004FA97999999D93F555555555555D53F23
:1023300000005043FFFFEF7F0000F03F0000E03F50
:10234000000050C316A3D3E90023DDE9020104F025
:102350002DFF42464B4604460D465046594604F072
:102360006DFD53EC182B04F021FF0FA3D3E90023DC
:1023700006460F46DDE9020104F018FF02460B464F
:102380003046394604F05AFD52465B4604F056FD8D
:1023900002460B462046294604F050FD67E600BF82
:1023A0000000E0FE422EE63F763C7935EF39EA3D0B
:1023B0002DE9F04F2DED0C8B23F0004B1F469A4674
:1023C0005BEA020387B03AD00D4689466C4925F096
:1023D00000488845044603462ADC164636D08B451D
:1023E00026DC67498B4521D0B9F1000F39DB00218C
:1023F0000091002A50D1624A934500F09B80614AC7
:10240000934500F0A980BAF1804F00F0A1845E4AA4
:10241000924541D1B9F1000F3EDB2046294607B075
:10242000BDEC0C8BBDE8F04F01F012B8002ADBD0F8
:1024300008F1404808F5801858EA030309D15149CA
:10244000002007B0BDEC0C8BBDE8F08F08B9C34588
:10245000C7DD4E4807B0BDEC0C8BBDE8F04F04F073
:1024600009B94B498B457EDCA1F154718B450FDDD9
:102470004FEA2B51A1F2FF31142940F37984C1F1C5
:10248000340122FA01F000FA01F1914200F0BF8418
:1024900000210091002AB2D0204629460293FEF77F
:1024A00039F9029B3BBBB8F1000F04D0354B29F042
:1024B00040429A421FD1BAF1000F05DA02460B469C
:1024C0000020304904F09CFFB9F1000FB9DA009BFD
:1024D00008F1404808F5801858EA030340F06B847F
:1024E00002460B461046194604F0A8FC02460B466D
:1024F00004F086FFA5E7009A4FEAD973013B0493E5
:10250000134333D0234B9B4548DD03F104739B45B4
:10251000214B40F3C383984540F35283BAF1000F37
:1025200040F3528314A3D3E900231046194604F064
:102530003DFE86E708F1404202F5801213433FF466
:102540007EAF154B984540F36C83BAF1000FC0F293
:102550003B833046394674E7BAF1000FC0F200847D
:10256000204629466DE70221009142E722462B468C
:10257000B8E700BFAFF300809C7500883CE4377E6D
:102580000000F07F0000F03F0000E03F68F102082B
:10259000FFFF3F430000E041FFFFEF3FE04B09EA50
:1025A000030300222BB9DF4B04F000FE6FF034026E
:1025B00088464FEA2853A3F2FF339A18DA4B059264
:1025C000C8F3130848F07F54984544F4401407DDDD
:1025D000D64B984540F3F88301320592A4F5801458
:1025E0009FEDB76B9FEDB87B53EC162BB0EE47CA4F
:1025F000F0EE67CA0025B0EE47DAF0EE67DA214662
:1026000041EC190B43EC1A2B04F018FC53EC1A2B79
:102610008046894651EC190B04F012FC02460B4629
:102620000020C34904F0ECFE41EC1B0B404653EC88
:102630001B2B494604F0BAFD41EC180B0A46014633
:10264000CDE90212002102916410DDE902AB44F0F1
:10265000005404F500230020591904460D46024693
:102660000B465046594604F0A1FD02460B46404633
:10267000494604F0E3FB53EC1A2B8046894620467A
:10268000294604F0DBFB02460B4651EC190B04F023
:10269000D5FB52465B4604F089FD02460B46404698
:1026A000494604F0CBFB53EC1B2B04F07FFD53ECAD
:1026B000182B41EC190B51EC180B04F077FD84A397
:1026C000D3E9002304460D4604F070FD82A3D3E94C
:1026D000002304F0B5FB22462B4604F067FD80A3DF
:1026E000D3E9002304F0ACFB22462B4604F05EFD48
:1026F0007DA3D3E9002304F0A3FB22462B4604F07C
:1027000055FD7BA3D3E9002304F09AFB22462B4618
:1027100004F04CFD78A3D3E9002304F091FB22469A
:10272000804689462B462046294604F03FFD024656
:102730000B464046494604F039FD524604460D46D4
:102740005B4651EC180B04F07BFB53EC192B04F0A7
:102750002DFD22462B4604F073FB524680468946E7
:102760005B465046594604F021FD02460B4643ECB9
:102770001A2B704B002204F063FB42464B4604F0D8
:102780005FFB00240D4622462B465046594604F076
:102790000DFD684B82468B4600222046294604F0F8
:1027A0004DFB53EC1A2B04F049FB02460B46404606
:1027B000494604F043FB53EC182B04F0F7FC224687
:1027C0002B4604460D4651EC190B04F0EFFC024673
:1027D0000B462046294604F033FB80468946424694
:1027E0004B465046594604F02BFB45A3D3E9002342
:1027F000002004460D4604F0D9FC524641EC190B6A
:102800005B462046294604F019FB02460B4640462B
:10281000494604F013FB3CA3D3E9002304F0C6FCB3
:1028200002460B462046294614461D4638A3D3E9E6
:10283000002304F0BBFC02460B462046294604F068
:10284000FFFA53EC1D2B04F0FBFA804605988946ED
:1028500004F042FC424682468B464B4651EC190B33
:1028600004F0EEFA53EC1C2B04F0EAFA52465B46F5
:1028700004F0E6FA52465B46002004460D4604F09A
:10288000DDFA53EC1C2B04F0D9FA53EC192B04F0AD
:10289000D5FA02460B464046494604F0CFFA009B63
:1028A000049A013B134382468B4640F0B3819FED6F
:1028B0001A7BB0EE478AF0EE678A3DE0AFF3008006
:1028C000000000000000F03F0000000000000000D9
:1028D000EF4E454A287ECA3F65DBC9934A86CD3F05
:1028E00001411DA96074D13F4D268F515555D53FEB
:1028F000FFAB6FDBB66DDB3F033333333333E33F83
:10290000000000E009C7EE3FFD033ADC09C7EE3FD7
:10291000F5015B14E02F3EBE000000000000F0BF98
:102920000000F07F000040438E98030079B60B0052
:102930000000F03F000008400023CDE9006700934D
:10294000DDE90089304642464B46394604F076FAC6
:1029500022462B4604F02AFC32463B4606460F46EA
:102960005046594604F022FC02460B463046394692
:1029700004F066FA42464B4606460F462046294674
:1029800004F014FC04460D462B46304639462246D8
:1029900004F056FABC4B9942804689468A4640F379
:1029A000168101F13F4303F5E003034340F0F58155
:1029B0009FA3D3E900233046394604F041FA02468A
:1029C0000B46404649469046994622462B4604F01F
:1029D00035FA02460B464046494604F077FE002889
:1029E00040F0DB81CAF30A534FF48012A3F2FE33A6
:1029F00042FA03F35344A549C3F30A52A2F2FF3249
:102A000041FA02FCC3F3130141F48011C2F1140234
:102A100041FA02F2002023EA0C01BAF1000F009201
:102A20000B46024602DA00994942009120462946A7
:102A300004F004FA009B1B05029302460B46044671
:102A40000D463046394604F0FBF989464FF0000840
:102A500079A3D3E900234046494604F0A7FB224668
:102A60002B4682468B464046494604F0E7F902462B
:102A70000B463046394604F0E1F971A3D3E900234F
:102A800004F094FB70A3D3E9002304460D464046AE
:102A9000494604F08BFB02460B462046294604F0CB
:102AA000CFF906460F4632463B465046594604F09B
:102AB000C7F952465B4604460D4604F0BFF902468C
:102AC0000B463046394604F0B9F92246804689461D
:102AD0002B462046294604F069FB5DA3D3E9002379
:102AE00006460F4604F062FB5BA3D3E9002304F023
:102AF000A5F932463B4604F059FB59A3D3E900231C
:102B000004F09EF932463B4604F050FB56A3D3E94D
:102B1000002304F093F932463B4604F047FB54A3EC
:102B2000D3E9002304F08CF932463B4604F03EFB27
:102B300002460B462046294604F080F906460F4619
:102B400032463B462046294604F030FB02460B46FF
:102B50003046394616461F4600224FF0804304F0A7
:102B60006DF902460B463046394604F049FC4246B0
:102B700006460F464B462046294604F017FB4246C0
:102B80004B4604F05DF902460B463046394604F0E8
:102B900055F922462B4604F051F902460B46002017
:102BA0003B4904F04BF9029D0C462C44B4F5801FC0
:102BB000C0F22981214653EC182B04F0F7FA40E4C7
:102BC000BAF1000FFFF6AEAC0020002139E4DFF8C7
:102BD000C8C021F00043634540F3D7802D4B0B4420
:102BE00003430AD122462B4604F028F932463B46DD
:102BF00004F062FD00283FF4F5AE1FA3D3E90023E3
:102C000051EC180B04F0D2FA1BA3D3E9002304F013
:102C1000CDFA16E49FED1A7BB0EE478AF0EE678A94
:102C20008AE6BAF1000FCFDA304607F1004108E436
:102C3000FE822B654715973C00000000432EE63FBF
:102C4000EF39FAFE422EE63F396CA80C615C20BEDB
:102C5000D0A4BE726937663EF16BD2C541BDBB3EA2
:102C60002CDE25AF6A56113F93BDBE166CC1663F80
:102C70003E5555555555C53F59F3F8C21F6EA50130
:102C8000000000000000F03FFFFF8F40FFFF0F003B
:102C90000000F03F00346F3FFFCB904098458FDB42
:102CA000754B98453FF73AAC734B002204F0C6F8D9
:102CB00061A3D3E9002304460D4604F077FA60A32C
:102CC000D3E9002382468B462046294604F06EFA5B
:102CD0006A4B41EC180B00222046294604F066FAA4
:102CE00002460B4658A1D1E9000104F0A7F822469C
:102CF0002B4604F05BFA02460B460020604904F0C4
:102D00009DF82246804689462B462046294604F0F7
:102D10004DFA02460B464046494604F047FA4CA39A
:102D2000D3E9002304F042FA02460B4651EC180B9B
:102D300004F084F88046894642464B465046594640
:102D400004F07EF8002052465B4604460D469EE5A0
:102D500022462B462046294604F028FAFFF771BB8D
:102D600022462B464449002004F04AFBFFF769BB8A
:102D7000002A3CD1C1F114014BFA01F000FA01F133
:102D800059454ED00092FFF73ABB3D4A93424FDC83
:102D9000DDE900120291009158E62FA3D3E9002348
:102DA00051EC180B04F002FA2BA3D3E9002304F032
:102DB000FDF9FFF746BB009B012B7FF442AB01F10D
:102DC00000431946FFF73DBB9FED257BB0EE47CA98
:102DD000F0EE67CA9FED247BB0EE47DAF0EE67DADB
:102DE0009FED237B4FF4802553EC172B07E42046FF
:102DF00029460093FDF78EFC009B002B7FF4B6ABB9
:102E00000093FFF750BB009A03F03AFCD3E600F0C2
:102E10000100C0F102010091002A3FF4F0AAFFF77F
:102E20003BBB00F00100C0F102020092FFF7E7BADD
:102E30001B15D9E5AFF30080000000604715F73F90
:102E400044DF5DF80BAE543E555555555555D53FAD
:102E5000FE822B654715F73F9C7500883CE4377E62
:102E60000000004003B8E23F06D0CF43EBFD4C3EEC
:102E7000000000000000F83F0000F03F0000D03FDD
:102E80000000E03F000000002DE9F04F8C4B2DEDDD
:102E9000048B21F000459D428BB080468946144644
:102EA00040F38680874B9D420F4628DC00297AA399
:102EB000D3E9002340F3AD8103F0C0FF824B9D4274
:102EC0008046894600F08B8075A3D3E9002303F088
:102ED000B5FF02460B46C4E900234046494603F0CD
:102EE000ADFF6FA3D3E9002303F0A8FFC4E90201FB
:102EF000012630460BB0BDEC048BBDE8F08F734B60
:102F00009D4240F38E80724B9D425EDC2E15A6F2F0
:102F10001646A5EB0651894604F0F8FB04F0DCF8F0
:102F200002460B4640464946CDE9042303F086FF9E
:102F3000684B002204F03AF98946804604F0E6FB2B
:102F4000054604F0C9F802460B4640464946CDE91D
:102F5000062303F073FF5F4B002204F027F90246BB
:102F60000B46CDE908230022002304F087FB00284C
:102F700000F04D81002D0CBF01230223564A01921F
:102F8000022200922146324604A801F065FD002F7E
:102F90000646AEDA6168226801F10043E168C4E9DF
:102FA0000023A26801F10043C4E902234642A0E7DE
:102FB0000026002200233046C4E90089C4E9022328
:102FC0000BB0BDEC048BBDE8F08F02460B4603F05E
:102FD00035FF0026C4E90201C4E9000189E732A3F4
:102FE000D3E9002303F02AFF31A3D3E9002380466D
:102FF000894603F023FF02460B46C4E900234046FE
:10300000494603F01BFF2AA3D3E9002303F016FF70
:103010000126C4E9020130460BB0BDEC048BBDE8CB
:10302000F08FFDF777FB24A3D3E900238046894680
:1030300004F0BCF8294B002203F002FF04F066FB09
:10304000064604F049F802460B4643EC182B12A33F
:10305000D3E90023B0EE489AF0EE689A04F0A6F89F
:1030600002460B464046494603F0E8FE0CA3D3E96E
:10307000002382468B4651EC180B04F097F81F2E64
:1030800041EC180B2EDC164B721E53F82230AB426B
:1030900028D002460B4699E000004054FB21F93F3E
:1030A0003163621A61B4D03D0000601A61B4D03D52
:1030B0007370032E8A19A33B83C8C96D305FE43F48
:1030C000FB21E93F7BD90240FB21F93FFB2139413C
:1030D000FFFFEF7F0000704108D202080000E03FD0
:1030E00088D102082B150393504653EC182B5946F0
:1030F00003F0A4FEC1F30A53C3EB1555102D80460F
:10310000894669DD64A3D3E9002351EC190B04F06F
:103110004DF88046894642464B465046594603F094
:103120008DFE02460B465046594692469B4603F09A
:1031300085FE42464B4603F081FE59A3D3E90023A6
:103140008046894651EC190B04F030F842464B4654
:1031500003F074FE02460B465046594643EC182BCA
:1031600003F06CFE039AC1F30A53D31A312B804645
:10317000894631DD4DA3D3E9002351EC190B04F04E
:1031800015F88046894642464B465046594603F05C
:1031900055FE02460B465046594692469B4603F062
:1031A0004DFE42464B4603F049FE42A3D3E90023BD
:1031B0008046894651EC190B03F0F8FF42464B4616
:1031C00003F03CFE02460B4643EC182B5046594692
:1031D00003F034FE8046894642464B46C4E90089E6
:1031E0005046594603F02AFE53EC182B03F026FEF6
:1031F000002FC4E90201BFF67CAE09F10043C4E927
:10320000008301F10043C4E90203764271E603231F
:10321000B4E603F015FE244B9D428046894616D045
:103220001BA3D3E9002303F00BFE02460B46C4E9BF
:1032300000234046494603F001FE15A3D3E90023CD
:1032400003F0FEFD4FF0FF36C4E9020151E612A380
:10325000D3E9002303F0F4FD11A3D3E90023804652
:10326000894603F0EDFD02460B46C4E900234046C3
:10327000494603F0E3FD0AA3D3E9002303F0E0FD90
:103280004FF0FF36C4E9020133E600BFAFF3008020
:103290003163621A61B4D03D0000601A61B4D03D60
:1032A0007370032E8A19A33BFB21F93F0000002E07
:1032B0008A19A33BC14920259A837B39000000006D
:1032C000594A2DE9F84321F00046964204460D463E
:1032D0005CDC564B0029B4BFDFF87091DFF86491D5
:1032E0009E424FF0000812DD514B9E4240F38E800B
:1032F000504B9E4256DD01339E4250D048A3D3E945
:1033000000232046294603F051FFBDE8F8834A4BCD
:103310009E425EDC42A3D3E9002303F091FD474BBC
:10332000002204F0D3F9B8BB20462946FDF7F2F994
:1033300002F05AFF04460D4622462B4620462946F7
:1033400003F07EFD224606460F462B4620462946C0
:1033500003F02CFF02460B462046294614461D4624
:103360000022364B03F06CFD02460B4620462946F0
:1033700004F046F802460B463046394603F05EFD3F
:1033800042464B4603F012FFBDE8F88302460B4667
:1033900003F056FDBDE8F88320462946FAE7284A9F
:1033A0009042ABD820462946FDF7B4F9254B0022C0
:1033B00003F0FCFEFEF730FC04460D4622462B4689
:1033C0004046494603F0F2FE22462B4603F0EEFE4D
:1033D000E0E7FDF79FF902F007FF1B4B9E42044612
:1033E0000D46A9DD154B002203F02AFD02460B46CF
:1033F0002046294604F004F822462B4603F020FD1F
:1034000042464B4603F0D2FEBDE8F883FDF782F951
:10341000FEF702FC42464B4603F0C8FEBAE700BF87
:103420003374AC3C1F7BAC7FFFFFEF7FFFFF354069
:10343000412E8640CD338640FFFF2F3E0000F03FF7
:103440007DF8B98F0000E03FFFFFEF3F0000E0BFD5
:10345000594A8A432DE9F04106460F4600F0928012
:1034600000290B46044651DD09155DD0C3F3130353
:10347000C807A1F2FF3743F4801303D45B0003EBCA
:10348000D4736400E20F002602EB430360007F1058
:103490004FF0160E34464FF40012A118994202DC88
:1034A0005B1A8C1816445B00BEF1010E03EBD0735F
:1034B0004FEA52024FEA4000EFD175464FF0200C20
:1034C0004FF000420AE03FD0C10FBCF1010C01EB0C
:1034D00043034FEA40004FEA52023ED0A34202EBC0
:1034E0000E01F0DD002901EB020E09DBA0461B1BDB
:1034F000814288BF03F1FF33401A15444446E3E795
:10350000BEF1000FF2DB04F10108F0E721F0004208
:10351000024335D000293FD1E20A1539134664052C
:10352000002AF9D0D70241D400205B00DE02054614
:1035300000F10100F9D51A4623468440C0F120006D
:10354000C340491B134391E78142BDD8002901EBD9
:10355000020ED5DB98460023CEE7034302D0691C58
:1035600022D001354FEA550C731003F17F53F20757
:1035700003F5001348BF4CF0004C03EB07516046C5
:10358000BDE8F08102460B4603F010FE32463B4692
:1035900003F056FCBDE8F081024603F04FFC024602
:1035A0000B4603F02DFFEBE70136DDE72346202035
:1035B0004FF0FF35C4E700BF0000F07F38B520F0C2
:1035C0000044B4F17E5F2DED048B07EE900A00F00D
:1035D0008A807FDCB4F17C5F05460FDAB4F1485F86
:1035E00080F2A0809FED6B7A37EE877AF7EE006A63
:1035F000B4EEE67AF1EE10FA00F3918017EE900A3D
:10360000FDF730FB07EE100AF7EE007A37EEC78AB7
:10361000B6EE007A28EE078ADFED5F6A9FED5F7AEB
:103620009FED5F6A9FED5F5ADFED5F5ADFED5F8AC6
:10363000E8EE076A9FED5E7AA8EE067A9FED5D6A76
:10364000A6EE885AA7EE086A9FED5B7ADFED5B6A0B
:10365000E5EE085AA6EE087AE5EE886AE7EE087A03
:10366000E6EE888A18EE100AB0EE679A01F0BCF810
:10367000534B9C4268EE888A06EE900A40DC20F4A8
:103680007F6323F00F0306EE103AA6EE468A76EE2D
:10369000867AC8EE894A88EE274A9FED4A7ADFED9E
:1036A0004A7AF0EE005AA4EE657A76EEA66AB0EE9B
:1036B000675AA6EE655A96EEA47A37EE457A37EE4B
:1036C000C77A002D0ADCBDEC048BB1EE477A17EE09
:1036D000100A38BD77EEE77A87EEA77ABDEC048B47
:1036E00017EE100A38BD9FED377ADFED386A27EE06
:1036F000877ABDEC048BA7EEA67A17EE100A38BDC8
:10370000C8EE895A9FED327ADFED307AE6EEA56A8F
:10371000B0EE006AA6EE867A37EEC77AD1E707EEFA
:10372000100ADBE727EEA77ADFED1C6A9FED1A6A25
:10373000DFED1C5A9FED1A5ADFED1B4AA7EE266AF1
:10374000BDEC048BE6EE075ADFED196A9FED196AAE
:10375000E7EE056AE5EE874AA6EE876A9FED175AFF
:10376000DFED155ADFED116AA4EE875AE6EE075A2F
:10377000E5EE076AB7EE006AA5EE876A26EE877A5D
:10378000C7EE066AE7EEA67AB0EE677A17EE100A81
:1037900038BD00BFCAF24971047F4F3A08EF1138B3
:1037A0002EC69D3D461124BDA80A4E3EABAA2A3E18
:1037B000613330BF2D57014039D119C090B0A6BE3A
:1037C0009999793F2EBD3BB3DB0F493FDB0FC93FD2
:1037D0002EBD3B3310B582B007EE900A0191019BDC
:1037E00023F00042B2F1FF4F32DC20F00041B1F192
:1037F000FF4F84462CDCB3F17E5F4BD09C1704F066
:10380000020444EAD07459B3B2B3B2F1FF4F48D0C6
:10381000B1F1FF4F30D08A1AB2F1F45F4FEAE251B2
:103820003DDA002B49DA3C3147DA0020012C5CD02C
:10383000022C4DD094B106EE900ADFED337A9FED65
:10384000337A76EEA77A77EEC77A17EE900A05E01C
:103850009DED017A77EE277A17EE900A02B010BD3F
:10386000022C15D09FED2A7A032C0CBF17EE100AFC
:1038700017EE900A02B010BDDFED267A9FED267A92
:10388000BCF1000FB4BF17EE100A17EE900AE5E77F
:103890002248E3E702B0BDE81040FDF7D1B8204868
:1038A000C4E7B1F1FF4F04F1FF3421D0022C26D838
:1038B0001C4B03EB8404E068D0E79DED017AC7EE72
:1038C000877A17EE900AFDF7CDF9FDF7B9F8ADE765
:1038D00006EE900ADFED0C7A9FED0C7A76EEA77A71
:1038E00077EE677A17EE900AB8E700F10040B5E787
:1038F000022C06D80B4B03EB84042068AEE70020B3
:10390000ACE70948AAE700BF2EBDBB33DB0F494037
:10391000DB0F49C0DB0FC93FDB0FC9BFDB0F4940DD
:10392000DB0FC93F10D30208DB0F493F10B52DED67
:10393000028B82B00190019C24F00044B4F1FF4F4F
:1039400030DA334B9C4212DD324B9C4234DD324B39
:103950009C423EDD314B9C4246DDDFED317A67EE25
:10396000A77A17EE900A02B0BDEC028B10BDFDF7EE
:1039700079F902F007FF07EE100AF7EE006AB4F1DA
:10398000105F77EE267AECDB77EEA77A27EE077AE0
:1039900087EE276A76EE267A17EE900A02B0BDEC23
:1039A000028B10BD07EE900A67EEA77A17EE900A19
:1039B00002B0BDEC028B10BDFDF754F900F032F8F7
:1039C00006EE900AB6EE007AC7EE267AE6EE877A21
:1039D000C7E7FDF747F900F025F807EE100AF6EE05
:1039E000007A67EE277ABCE7FDF73CF907EE900A0C
:1039F000B6EE008A67EE887A17EE900A00F012F8A9
:103A000007EE100A67EE087A67EE877AA9E700BF2B
:103A10001772B13EFFFFAF411772B142FCD4B24200
:103A2000CAF2497120F00042B2F1FF4F07EE900A4E
:103A3000034650D84FEAD07100F096806548834223
:103A40004EDC002BC0F28A80634B9A424FD9634B05
:103A50009A4200F2A080624B03EB8103D3ED003A5F
:103A6000D3ED026AC1F1010077EEE33A401A73EE3A
:103A7000E67A9FED5C7A9FED5C4ADFED5C4ADFED14
:103A80005C5A9FED5C5A27EEA76AA6EE074AE4EE61
:103A9000064AE4EE865AA5EE865AF0EE675AE5EE3F
:103AA000465A002849D0B0EE006A27EEA55A76EEB5
:103AB000655AB7EE007AC5EE257A10F17D0F76EEE5
:103AC000E76A76EEE37A37EE677A56DB17EE103A5E
:103AD00003EBC050704777EEA77A17EE900A704755
:103AE000DFED457A67EEA77A17EE900A7047B2F1DC
:103AF000465F0AD29FED407A37EE877AF7EE006A8A
:103B0000B4EEE67AF1EE10FA5FDC27EEA77ADFED8D
:103B1000356A9FED355ADFED355A9FED356AA7EED0
:103B2000265ADFED346AE7EE055AA7EE256AF0EE75
:103B3000675AE7EE066AE7EE665AB0EE007A27EEBD
:103B4000A56A75EEC75AF7EE006A86EE257A77EE1B
:103B5000677A76EEE77A17EE900A7047274B9A421B
:103B60007FF672AF002070479FED257A002914BFC1
:103B700017EE100A17EE900A704717EE103A6430ED
:103B800003EBC05007EE100ADFED1E7A67EE277ACE
:103B900017EE900A70471248DFED1B6ADFED1B5AE3
:103BA0009FED1B6A00EB810090ED047AA7EEA67AE8
:103BB000BDEEC77AF8EEC76A17EE100AE6EEE57AB0
:103BC00066EE866AF0EE673A51E777EEA67A17EE70
:103BD000900A70471772B1421872B13E9115853F35
:103BE00028D302084CBB31330EEADDB555B38A3811
:103BF000610B36BBABAA2A3ECAF24971B5F1CF427E
:103C0000000000000000800D3BAAB83F8071313FEA
:103C1000D1F7173730F0004207EE100A03462DD0D7
:103C2000002834DBB0F1FF4F43DAB0F5000F37DB8B
:103C30004FF0000C7048C3F31601084400F4000272
:103C400082F07E520A43DB1507EE102A7F3B6B4A57
:103C5000634401F10F0CF7EE007A0CEA020237EE32
:103C6000677A03EBD0534ABBB5EE407AF1EE10FA17
:103C700067D1002B40F09F80002070479FED607A55
:103C8000DFED607AC7EE277A17EE900A704777EE7D
:103C9000477A9FED5C7AC7EE877A17EE900A7047F5
:103CA000DFED597A67EE277A6FF0180C17EE903A2D
:103CB000C0E777EE077A17EE900A7047F0EE007AC9
:103CC00077EE277A06EE903AC7EE273A4F48C1F5CD
:103CD0005712084402F522720243002ADFED4C2AF3
:103CE0009FED4C4A9FED4C5A9FED4C3ADFED4C4A0C
:103CF000DFED4C7A9FED4C6A63EEA35AB8EEE62AEC
:103D000065EEA56AA6EEA24AE6EE834AA4EE265A1E
:103D1000A4EEA66AE5EE267A67EEA57AE6EE267AA6
:103D20002EDDF6EE006A67EE266A66EE876A7BBBDA
:103D300077EEA67AE7EEE36A77EE667A17EE900AF8
:103D40007047F6EE006A9FED396AF0EE667AE7EEAC
:103D5000467A67EE076A66EEA76A002BECD007EE9C
:103D6000903ADFED335A9FED336AF8EEE77AE7EEEB
:103D7000E56A36EEC77A97EE867A17EE100A704734
:103D800043BB77EE677AA7EEE37A17EE100A704727
:103D90009FED276ADFED275A77EEA67A22EE066AB4
:103DA000A7EEA36A76EEC66A36EEC77A92EE257A59
:103DB00017EE100A704707EE903A9FED1D7ADFED7F
:103DC0001D6AF8EEE77A27EE877AA7EEA67A17EE55
:103DD000100A7047DFED166A9FED166A77EE677A74
:103DE00066EEC26AE7EEA36A36EEC77A92EE067A0C
:103DF00017EE100A704700BF20FB4A00F0FF7F005B
:103E0000000000CC000000000000004C305CCFFF40
:103E10009788173E25333A3E2549923E4FD01C3EA7
:103E2000298E633EABAA2A3FCDCCCC3EABAAAA3E9C
:103E3000D1F717378071313F2DE9F0432DED028B1B
:103E400031F0004783B014D020F00046B6F1FF4FA8
:103E50000446804607DDC34803B0BDEC028BBDE8D5
:103E6000F04302F025BEB7F1FF4F09DDB6F17E5FEA
:103E7000F1D14FF07E5003B0BDEC028BBDE8F08372
:103E800000280D46C0F2F7804FF00009B7F1FF4F50
:103E900000F00481B7F17E5F00F03481B5F1804F0E
:103EA00000F04781B5F17C5F40F00481B8F1000F6C
:103EB00080F2468120460191FCF7D4FEB6F1FF4F17
:103EC000019900F01081002E00F00981B6F17E5FAB
:103ED00000F0FB804FEAD873013B59EA030200F07F
:103EE0003781B7F19A4F40F35D819F4A964240F384
:103EF0006A829E4A964200F3098107EE100AF7EEA5
:103F0000007A77EE677ADFED9A5A9FED9A5AB5EE0E
:103F1000007AE7EEC75AB6EE006AA5EEE76A67EEEA
:103F2000A76A9FED957ADFED955A66EE866A27EED1
:103F3000667AA7EE857AF0EE476AE7EEA56A16EE96
:103F4000902A22F47F6222F00F0206EE102AA7EEDA
:103F5000E56A06EE902A77EE467A25F47F6525F02D
:103F60000F0507EE101A06EE105A67EE877A37EE45
:103F7000466A07EE105AE6EE267A09F1FF3959EA49
:103F8000030326EE877AB7EE008A77EE876ABFEEE4
:103F9000006A16EE903A08BFB0EE468A002B23F076
:103FA000004240F3C481B2F1864F00F3038200F077
:103FB000F681B2F17C5F00F3C6810022114623F442
:103FC0007F6323F00F0306EE103ADFED6D6A9FED7D
:103FD0006D5A9FED6D2A9FED6D3ADFED6D3A9FEDC5
:103FE0006D4ADFED6D4A36EE477AF0EE002A77EE45
:103FF000C77A26EE267ADFED696AA7EEA67AF0EE9A
:10400000476AE6EE056A66EEA65AF0EE667AA5EE17
:10401000823AE6EE457AB0EE636AA3EE256A77EE61
:10402000677AB0EE447AA6EE257AB0EE646AA7EE1F
:10403000256AB0EE667AA6EE657AE6EEA77A66EEB7
:10404000875A37EE626AB7EE005A85EE867A77EEC7
:10405000677A77EEE66A75EE666A16EE903A134472
:10406000B3F5000FC0F2CB8107EE903A67EE887A85
:1040700017EE900AFFE6B7F1974F18DAB7F17E5FB7
:1040800009DBFB15C3F1960347FA03F202FA03F3C7
:10409000BB4200F047814FF00009FBE6B6F17E5FBE
:1040A0003FF4E7AE37DD002D33DB0846E3E64FF0A3
:1040B0000209EBE620460191FCF7D4FDB6F1FF4F73
:1040C00003D00199002E7FF401AF002D07DA07EE2F
:1040D000100AF7EE007AC7EE877A17EE900AB8F169
:1040E000000FBFF6C8AEA6F17E5656EA090340F0AF
:1040F000128107EE900A77EEE77AC7EEA77A17EEFD
:10410000900AB8E6002D0BDB2046B4E6002D00F344
:104110005D810020AFE6002DFBDA81F00040AAE6C9
:1041200007EE104AF7EE007AC7EE877A17EE900A8C
:10413000A1E607EE904A67EEA77A17EE900A9AE694
:10414000204603B0BDEC028BBDE8F04300F04CBB51
:1041500007EE904A77EEE77AC7EEA77A17EE900A55
:1041600089E600BF68F10208F7FF7F3F0700803F44
:10417000ABAAAA3E70A5EC363BAAB83F00AAB83F4E
:104180008CBEBF350072313F4CBB31330EEADDB51A
:1041900055B38A38610B36BBABAA2A3E1872313F41
:1041A0000000804B18F0FF4F40F0F7805FED047A7D
:1041B00007EE100A67EE277A6FF0170217EE906A83
:1041C000924CF015C6F316067F38A642104446F00E
:1041D0007E5240F3DA808E4CA64240F3FE809FED83
:1041E0008D5A0130B0EE453AA2F50002F7EE005AC2
:1041F000002406EE102A76EE257AB7EE007A87EED6
:10420000270A521042F0005202F58022224476EE34
:10421000656A07EE900A66EE803AB8EEE77A13EE2A
:10422000900A07EE902A7C4ADFED7C0A9FED7C8A9B
:104230009FED7C1ADFED7C2ADFED7C1A9FED7C2A56
:1042400077EEE55A104004EE900A36EE656A63EEAA
:10425000A35AE4EEE76AF0EE607AE5EE887AE4EEDF
:10426000C66AA7EEA51A66EE806AE1EE252A73EE0D
:10427000A47AE2EEA51A25EEA58AA1EEA52A67EE9C
:10428000A67AB0EE084AB0EE446AE8EE027AA4EEEE
:10429000A46ADFED680A9FED681ADFED682A36EE42
:1042A000276A16EE100A104006EE100A76EE445AFF
:1042B000E4EEE45A77EEE57A67EEA37AE6EE867AE4
:1042C000F0EE675AE4EE865A15EE900A104006EEBC
:1042D000900AE4EEC66A05EE900A77EEE67A67EE9B
:1042E000A07AE5EE817A77EE837AF0EE676AE5EE02
:1042F000A26A76EE856A76EE876A16EE900A10401C
:1043000006EE900A36EEC77A37EE457AA5EEE27AE7
:1043100077EEC77A21E6B9F1010F7FF4ACAD80F0FA
:104320000040A8E502F00102C2F10209B2E54449E9
:104330008A425BDC7FF43DAE76EEC76AF4EEE76A54
:10434000F1EE10FA52DAD2154FF400017E3A41FA3A
:1043500002F21A44C2F3C7503A4C7F380441C2F308
:10436000160122EA040206EE902A37EE667A41F43C
:104370000001C0F117000141002B77EE876AB8BF3A
:10438000494216EE903ACA0519E69FED225AF7EE19
:10439000005AB0EE453A00242BE7002210E79FEDCB
:1043A0002A6A76EEC76A37EE866AB4EEE66AF1EEFE
:1043B00010FAC8DD9FED257A68EE077A67EE877AF6
:1043C00017EE900A57E5002DBFF6A3AEDFED1F7A7A
:1043D00067EEA77A17EE900A4DE59FED1D5A9FED07
:1043E0001D3AF7EE085A4FF4001402E79FED1A7ACF
:1043F00068EE077A67EE877A17EE900A3BE516EECD
:10440000900A02F0BBFB07EE900A2FE671C41C0075
:10441000D6B35D000000000000F0FFFF55326C3E97
:1044200042F1533E05A38B3EABAAAA3EB76DDB3EDD
:104430009A99193F4F38763FA0C39D360038763F92
:1044400000001643FFFF7F003CAA3833CAF24971CF
:1044500000C0153FDCCFD1356042A20D70B58B4A4C
:1044600020F00044944286B00D466FDD884A9442A5
:10447000064622DC0028DFED877A874A07EE100A1D
:1044800024F00F0440F3E980944277EE677A09BF85
:10449000DFED826A9FED827A9FED827A77EEE67A8F
:1044A000012077EEC76A77EEE67AC1ED006A77EE13
:1044B000C77AC1ED017A06B070BD7B4A944255DDE2
:1044C000B4F1FF4F48DAE215863AA4EBC25307EE87
:1044D000903ABDEEE77ADFED756AB8EEC77A77EE0F
:1044E000C77A8DED037A67EEA67ABDEEE77AB8EE6D
:1044F000C77A77EEC77A8DED047A67EEA67AF5EE85
:10450000407AF1EE10FACDED057A40F09580B5EEE7
:10451000407AF1EE10FA14BF02230123644901919D
:104520000221009103A8294601F0D4F9002EC2DA35
:1045300095ED007AD5ED017AB1EE477AF1EE677A22
:1045400085ED007AC5ED017A4042B4E7286000228B
:1045500000204A6006B070BD07EE900A77EEE77A59
:104560000020C1ED017AC1ED007AA4E7FCF77AFBE7
:10457000DFED506ADFED475A07EE100AF6EE007ADB
:10458000E7EE267ADFED466AFDEEE77A17EE900A4F
:10459000B8EEE76A1F28F0EE477AE6EE657A26EE77
:1045A000267AF1EE465A1EDC434A411E24F0FF03F0
:1045B00052F82120934216D077EEC76AC5ED006A03
:1045C00077EEE67A002E77EEC77AC5ED017ABFF670
:1045D00072AFF1EE666AF1EE677AC5ED006AC5ED7D
:1045E000017A404267E777EEC76AE21516EE903A25
:1045F000C3F3C753C3EBD454082CDFDD9FED277AF8
:10460000DFED286AB0EE675AA5EE875A77EEC57AD5
:10461000E5EE877AD6EE267A75EE676AB0EE677AAF
:1046200016EE903AC3F3C753D21A192A06DCF0EEFD
:10463000457AC5ED006AC3E703236FE7DFED1F6A24
:10464000DFED1F4AF0EE457AE5EEA67A35EE677AA1
:10465000A5EEA67A96EE247AAEE7944277EE277A14
:1046600009BFDFED0E6A9FED0E7A9FED0E7A77EEB1
:10467000A67A4FF0FF3077EE876A77EEE67AC1EDE3
:10468000006A77EE877AC1ED017A14E7D80F493FC7
:10469000E3CB1640800FC93FD00FC93F00443537E8
:1046A0004344353708A3852E800F494300008043DB
:1046B000C0D3020884F9223F40D3020800A3852E0C
:1046C00032318D2410B520F00044B4F1FF4F2DEDB0
:1046D000028B07EE900A42DA3F4A0028F6EE008A83
:1046E000BEEE007AB4BFB0EE478AB0EE688A94425C
:1046F0000EDD3A4B9C4251DD394B9C4259DD9FED1A
:10470000397A67EE877A17EE900ABDEC028B10BDFE
:10471000B4F1465F2ADA9FED337A37EE877AF7EE07
:10472000006AB4EEE67AF1EE10FAEEDCFCF79AFAE3
:1047300002F028F806EE900AB7EE007A66EEA65A66
:1047400036EE877AB0EE006AC5EE877AD6EE867AC4
:1047500067EE887ABDEC028B17EE900A10BDBDECB7
:10476000028B77EEA77A17EE900A10BDFCF77AFA63
:1047700002F008F8B4F17E5F06EE900ADCDBF7EE9B
:10478000007A76EEA77A86EEA77A77EE267A67EE3B
:10479000887ABDEC028B17EE900A10BDFCF762FA26
:1047A000FFF740F907EE900A67EE887A17EE900A55
:1047B000ABE7FCF757FA07EE900A67EEA87A17EE18
:1047C000900AFFF72FF907EE100A68EE077A67EEF6
:1047D000877A17EE900A98E7FFFFAF411772B14250
:1047E000FCD4B242C2BDF07C07EE900AF1EEE77A4B
:1047F00017EE900A704700BF2DE9F84F21F00049ED
:10480000B9F1795F2DED048B92469B4606460F4623
:104810006CDA02F07BFF002800F0EE8032463B4667
:104820003046394602F0C2FC77A3D3E900230446A0
:104830000D4602F0BBFC76A3D3E9002302F000FB97
:1048400022462B4602F0B2FC73A3D3E9002302F008
:10485000F5FA22462B4602F0A9FC71A3D3E9002306
:1048600002F0EEFA22462B4602F0A0FC6EA3D3E93A
:10487000002302F0E3FA22462B4602F097FC6CA3D9
:10488000D3E9002302F0DCFA22462B4602F08EFC2C
:1048900041EC180B6A4B00222046294602F086FCA8
:1048A00053EC182B804689462046294602F07EFCB0
:1048B00052465B4604460D463046394602F076FCC9
:1048C00002460B462046294602F0B8FA02460B463D
:1048D0004046494602F0B2FA02460B4600205949CA
:1048E00002F0ACFABDEC048BBDE8F88F02460B4633
:1048F00002F05CFC44A3D3E9002304460D4602F019
:1049000055FC43A3D3E9002302F09AFA22462B4632
:1049100002F04CFC40A3D3E9002302F08FFA2246B8
:104920002B4602F043FC3EA3D3E9002302F088FAB1
:1049300022462B4602F03AFC3BA3D3E9002302F0C7
:104940007DFA22462B4602F031FC39A3D3E900233D
:1049500002F076FA2B46224602F028FC3A4B9945A3
:1049600041EC180B96DD394B99453ADC0022A9F54C
:104970000013344900209046994602F05FFA41EC5A
:10498000190B2F4B00222046294602F00FFC42460D
:104990004B4602F053FA53EC182B804689462046CA
:1049A000294602F003FC52465B4604460D4630465B
:1049B000394602F0FBFB02460B462046294602F030
:1049C0003DFA02460B464046494602F037FA024697
:1049D0000B4651EC190B02F031FABDEC048BBDE82B
:1049E000F88F9FED157BDFF86890B0EE479AF0EEF8
:1049F000679A4FF00008C4E7BDEC048B1149002012
:104A0000BDE8F88FAFF30080D43888BEE9FAA8BDBE
:104A1000C4B1B4BD9EEE213EAD529C804F7E923E0D
:104A20009015CB19A001FA3E7751C1166CC1563FC3
:104A30004C5555555555A53F000000000000E73F77
:104A40000000E03F0000F03F3233D33F0000E93F79
:104A50000000D23F000000002DE9F04FADF5197DB8
:104A60001C4608930B91B74BA299049053F8211060
:104A70000591631E12F1140F0393C0F23F83B249F4
:104A8000D31E81FB0301DB17C3EBA10307930133A3
:104A9000A3EB8303DB00D3180693079A039BD41A76
:104AA000059AD6181AD40136A39F264420AD4FF09C
:104AB00000084FF0000908E057F8240002F00CFB52
:104AC0000134B442E5E8020108D0002CF4DA0134E4
:104AD00040464946B442E5E80201F6D1059B002B69
:104AE000C0F2B783089BDDF80C9020AA02EBC30A42
:104AF000DA000292059A1A440192049A0DF5E07BBD
:104B000002EBC308039B002BC0F2A181049E574611
:104B10000024002577E90223F6E8020102F046FBB3
:104B200002460B462046294602F08AF946450446CD
:104B30000D46EFD1019B09F101099945EBE80245CA
:104B40000AF1080ADED1049A029B1344059A0192E5
:104B50009B460BAB03EB82030A930CAB03EB820384
:104B6000083B0993019A98AB03EBC203002A53E96F
:104B7000284529DD0DF5E07A0AEBC2080DF1300970
:104B8000724B00222046294602F010FB02F0BEFDC7
:104B900002F0A2FA6E4B002206460F4602F006FB18
:104BA00002460B462046294602F048F902F0AEFDC7
:104BB00078E9022349F8040B3946304602F040F9FF
:104BC000D04504460D46DBD1DDF818902046294635
:104BD0004A4601F055FD00224FF07F5304460D4632
:104BE00002F0E4FAFBF79CFD5A4B002202F0DEFAD9
:104BF00002460B462046294602F020F90D4604469F
:104C000002F084FD804602F067FA0B460246294610
:104C1000204602F013F94B46002B06460F4640F3A0
:104C20009B80019A511E0CAAC9F1180352F8212049
:104C300042FA03F000FA03F3D31AC9F117050CAADC
:104C400043FA05F5002D42F82130804400F38E80B0
:104C5000002200233046394602F010FD002800F003
:104C60005482019B059A03F1FF3A524510DC03F18F
:104C700080430CAA013B0A9802EB8303002253F8FD
:104C80000419834242EA0102F9D1002A40F0E2808D
:104C9000059B0CAA013B52F82330002B40F0D28038
:104CA000099A012352F8041901330029FAD0019A14
:104CB000D3180293531C9946019A08990A449046C6
:104CC000079A02EB030A0AF1804AA39A0AF1FF3A13
:104CD00002EB8A0A20AA02EBC80870AA02EBC303FF
:104CE00001935AF8040F02F0F7F90B4603990246B4
:104CF0000029C8E90023474608F108081EDB049E86
:104D00000024002501E077E90223F6E8020102F021
:104D10004DFA02460B462046294602F091F85E45C0
:104D200004460D46EFD1019BE3E802450193029B47
:104D300009F101099945D4DD019313E70024002509
:104D4000F1E700BFD8D60208ABAAAA2A0000703E3D
:104D500000007041000020406BD1019B0CAA013B78
:104D600052F82350ED15002D7FF772AF019B002BF9
:104D700008F1010840F3C7810C9C002C51D1019B24
:104D8000012B20D00CAB012253F8044F002C4BD048
:104D9000531C0CA9C4F1807441F822400199994236
:104DA00010DD0CAA0CA852F8232000EB830300EBC3
:104DB00081006FF07F4100E01A688A1A43F8042BE3
:104DC0008342F9D10124069B002B0EDD012B00F05C
:104DD0006C81022B09D1019B5A1E0CAB0CA953F814
:104DE0002230C3F3150341F82230022D7FF430AF97
:104DF00032463B46B449002002F020F806460F46F2
:104E0000002C3FF425AF069AAF49002001F038FC92
:104E100002460B463046394602F010F806460F4669
:104E200016E701230022B4E7019901328A42ABD18F
:104E3000C9E7A64B002202F03FFC002840F04C815D
:104E4000054605E7019B01339946029334E70024A8
:104E500000256FE6069B0395A3F118020CABCDF875
:104E60001C8053F82A30069273B9019B03F18043EA
:104E7000023B0CA901EB830353F804190AF1FF3A32
:104E8000183A0029F8D00692069A8F49002001F0BE
:104E9000F7FBBAF1000F04460D46C0F2D08170ABAB
:104EA00003EBCA0B0CAA0AF10103069302EB83067B
:104EB000DFF81C924FEACA0304930BF108074FF086
:104EC000000856F8040D02F007F922462B4602F0BE
:104ED0006DF94B4667E9020142462046294602F039
:104EE00065F90CAB9E4204460D46EAD148ABCDE9CC
:104EF000013ADDF814A0BAF1000F4FF000092CDBE5
:104F00006FA3D3E90023DFF8CC815F46002600249D
:104F1000002503E0B14510DBF8E80223F7E80201C1
:104F200002F044F902460B462046294601F088FF6C
:104F30000136B24504460D46ECDA019B029A03EBBA
:104F4000C9034A45C3E90045ABF1080B09F1010368
:104F500006D0BAF1000F9946D2DA00240025ECE71A
:104F6000A29BDDF808A0022B1EDC002B00F30081C1
:104F700013D1049C019D08342C440020002174E9C5
:104F8000022301F05DFFA542F9D1039B13B101F1AA
:104F9000004319460B9BC3E90001079B03F0070080
:104FA0000DF5197DBDE8F08FA29B032BF5D1BAF169
:104FB000000F00F06081019A049BD318D3E90045EB
:104FC00002EBCA0B7BE902672046294632463B4684
:104FD00001F036FFA046A94604460D4622462B4660
:104FE0003046394601F02AFF4B46424601F028FF81
:104FF000019B5B45CBE90201CBE90045E2D1BAF167
:10500000010F40F33881019A049B0AF1005A0AF11A
:10501000FF3A13444FEACA01D3E9004501F1080AF7
:10502000029192440DF5947B7AE902672046294665
:1050300032463B4601F004FFA046A94604460D4611
:1050400022462B463046394601F0F8FE42464B4692
:1050500001F0F6FED345CAE90201CAE90045E3D1F1
:10506000029C019B10341C4403F110050020002118
:1050700074E9022301F0E4FEA542F9D1039B002B61
:1050800040F0B4800B9CC4E904010198D0E90023EE
:10509000C4E90023D0E90223C4E90223079B03F0FB
:1050A00007000DF5197DBDE8F08F019B5A1E0CAB72
:1050B0000CA953F82230C3F3160341F8223094E6CA
:1050C00000000040FB21F93F0000F03F0000E03FFE
:1050D0000000703EF0D60208019B002B08F1010889
:1050E000C8BF02253FF748AE32463B466349002021
:1050F00001F0A4FE022506460F46A9E500216FF047
:1051000017030791C7E400245DE63046069E039529
:1051100072423946CDF81C8001F0B2FA584B002299
:1051200004460D4602F0C8FA002855D0554B019FA1
:105130000022183620462946069602F037F802F07B
:10514000E5FA064601F0C8FF4D4B002202F02EF8AA
:105150000B4602462946204601F070FE02F0D6FAC0
:1051600007F1010A0CAB43F8270043F82A608BE6ED
:10517000019D069B002005EBC304002174E9022376
:1051800001F05EFEA542F9D1039B002B47D10B9B9A
:10519000C3E900010B4601990246D1E9000101F083
:1051A0004DFEBAF1000F0DDD4AAD0124F5E80223F2
:1051B000013401F045FEA245F8DA039B13B101F179
:1051C000004319460B9BC3E90201079B03F007004C
:1051D0000DF5197DBDE8F08F2046294602F096FABC
:1051E000019B0CAA9A4642F823004DE6019E01F16C
:1051F000004374680B993268F568C1E9040304F14F
:105200000043C1E90023B26805F10043C1E902236C
:10521000079B03F007000DF5197DBDE8F08F0B9A91
:1052200001F1004353600B46019910600246D1E939
:10523000000101F003FEBAF1000FB5DCBFE7A29B4D
:10524000022B0ADC002B11DC7FF4A7AE002000212A
:105250009BE6089BDB00029375E4A29B032B7FF483
:105260009CAE48AB00200021019307E748AB00202B
:105270000021019388E700200021FFE60000F03FB5
:10528000000070410000703E2DE9F04F83B0CDE981
:10529000002321F00043B3F1795F04460D4604DAA0
:1052A00002F034FA002800F0858022462B46204682
:1052B000294601F07BFF06460F4632463B46204614
:1052C000294601F073FF41A3D3E9002382468B46B0
:1052D0003046394601F06AFF3EA3D3E9002301F0CE
:1052E000ADFD32463B4601F061FF3CA3D3E900230C
:1052F00001F0A6FD32463B4601F058FF39A3D3E941
:10530000002301F09BFD32463B4601F04FFF37A3DF
:10531000D3E9002301F094FD0C9B804689469BB3A2
:10532000DDE90001284B002201F040FF42464B46D8
:10533000804689465046594601F038FF02460B46E2
:105340004046494601F07AFD32463B4601F02EFFC9
:10535000DDE9002301F072FD19A3D3E9002306461D
:105360000F465046594601F021FF02460B46304693
:10537000394601F065FD02460B462046294601F0FC
:105380005DFD03B0BDE8F08F02460B46304639465E
:1053900001F00CFF0AA3D3E9002301F04FFD5246B0
:1053A0005B4601F003FF22462B4601F049FD03B0A6
:1053B000BDE8F08F2046294603B0BDE8F08F00BF5E
:1053C000495555555555C53F0000E03F7CD5CF5A4E
:1053D0003AD9E53DEB9C2B8AE6E55A3E7DFEB15776
:1053E000E31DC73ED561C119A0012A3FA6F81011DF
:1053F0001111813F000000002DE9F84F2DED068BC3
:1054000043EC1A2BE24B21F000469E42804689462F
:105410000F461BDC02F07AF9002843D1109B42466C
:1054200001331343334300F0BB81109B012B00F089
:10543000C481D84900204B4601F0E2FFBDEC068B49
:1054400004460D4620462946BDE8F88FD24B9E42C1
:1054500028DD00290ADA01F1004351EC1A0B1AEE9B
:10546000102A994601F1004343EC1A2B42464B4661
:10547000A7A1D1E9000101F0E1FC53EC1A2B04468D
:105480000D46A5A1D1E9000101F0D8FC22462B462A
:1054900001F0D6FC9FEDA27B80468946B0EE47AA7C
:1054A000F0EE67AA42464B464046494601F07EFE72
:1054B00002460B4682468B4601F078FE5246044671
:1054C0000D465B464046494601F070FE96A3D3E97F
:1054D000002341EC180B2046294601F067FE94A3F7
:1054E000D3E9002301F0ACFC22462B4601F05EFE1E
:1054F00091A3D3E9002301F0A3FC22462B4601F03F
:1055000055FE8FA3D3E9002301F09AFC22462B46D7
:1055100001F04CFE8CA3D3E9002301F091FC22465C
:105520002B4601F043FE8AA3D3E9002301F088FC57
:1055300052465B4601F03AFE87A3D3E9002341ECD3
:10554000190B2046294601F031FE85A3D3E900233B
:1055500001F076FC22462B4601F028FE82A3D3E917
:10556000002301F06DFC22462B4601F01FFE80A3B4
:10557000D3E9002301F064FC22462B4601F016FE1D
:105580007DA3D3E9002301F05BFC22462B4601F00A
:105590000DFE7BA3D3E9002301F052FC55EC1A4B1E
:1055A00002460B4651EC190B01F04AFC53EC182B48
:1055B00001F0FCFD2B461AEE102A01F041FC524688
:1055C0005B4601F0F3FD2B461AEE102A01F038FC81
:1055D0006DA3D3E9002304460D4651EC180B01F0EE
:1055E000E5FD22462B4601F02BFC82468B465B46AE
:1055F00040464946524601F023FC674B9E42044612
:105600000D463FDC109B012B36D002460B46002096
:10561000604901F0F5FE00240F4642464B4606461F
:105620002946204601F00AFC02460B4650465946E0
:1056300001F004FC22463B4601F0B8FD02460B4651
:10564000204629469046994622463B4601F0AEFD4B
:10565000524B002201F0F4FB02460B4640464946FD
:1056600001F0EEFB32463B4601F0A0FD22463B46F0
:1056700001F0E6FB04460D46BDEC068B20462946AC
:10568000BDE8F88F109801F027FD224641EC180B79
:105690002B462046294601F089FD02460B4620464E
:1056A000294614461D4653EC182B01F0C9FB02464F
:1056B0000B462046294601F0A3FE52465B4601F008
:1056C000BDFB02460B464046494601F0B7FB024689
:1056D0000B4601F0B5FB02460B4651EC180B01F0EE
:1056E000ADFBBB1703F002030446C3F101000D46F6
:1056F00001F0F2FC02460B462046294601F056FD19
:10570000BDEC068B04460D4620462946BDE8F88FC1
:10571000182D4454FB21E93F075C143326A6813C35
:105720000000000000000000D47ABF74702AFB3E25
:10573000E9A7F0320FB8123F68108D1AF726303FF4
:105740001583E0FEC8DB573F93846EE9E326823F72
:10575000FE41B31BBAA1AB3F735360DBCB75F3BE05
:10576000A69237A0887E143F0165F2F2D844433FE9
:10577000280356C9226D6D3F37D60684F464963FE0
:105780007AFE10111111C13F635555555555D53F3E
:10579000FFFF2F3E0000F0BF2794E53F0000F03FE1
:1057A00040464946FAF7B6FF02460B460020044938
:1057B00001F026FE04460D465EE744464D465BE793
:1057C0000000F03F20F00043B3F1485F06EE100AFE
:1057D00007EE901A2EDABDEEC67A17EE103A002BBD
:1057E00064D066EE066A9FED337A9FED334ADFEDB3
:1057F000334A9FED335ADFED335AA6EE874A9FEDC9
:10580000327AE6EE844AA6EEA45AA6EE857AE6EE51
:10581000875A66EEA55A67EEC67AB6EE006AE6EEDD
:10582000A57AB7EE007AD6EE867A77EE677A17EE2B
:10583000900A704766EE066A9FED1E7A9FED1E4A3B
:10584000DFED1E4A9FED1E5ADFED1E5A1F4AA6EEDF
:10585000874A93429FED1C7AE4EE264AA4EEA65AAC
:10586000A5EE267AE7EE265A65EEA65AD3DD184A4B
:10587000934216DC03F17F4307EE103AB7EE005A6D
:1058800035EE475A67EEC67AB6EE006A96EE867A2D
:10589000E6EEA57A77EE677A75EE677A17EE900AEC
:1058A0007047B6EE075AB5EE027AEBE74FF07E503E
:1058B000704700BF4ED747ADF6740F317CF293B4FA
:1058C000010DD037ABAA2A3D610BB6BA9999993E22
:1058D0000000483F2DE9F04F2DED048BDBB01C4656
:1058E00003930691A74B6899089253F82150111D14
:1058F000824604F1FF38C0F2B882D31E48BF131DA0
:10590000DB1002930133DB000793DDE907239B1AC9
:105910000593029B15EB0801A3EB080216D4013195
:105920009FED997A699811441EAB002AA4BF50F8E4
:10593000224007EE904A02F10102ACBFF8EEE77A8E
:10594000F0EE477A8A42E3EC017AEED1002DC0F204
:10595000FC82039B1EAA02EB830446AE4FEA830C33
:105960004046EF180AEB8301B8F1000FDFED867AAD
:1059700009DB22465346F3EC016A32ED017A8B4291
:10598000E6EE877AF7D10130B842E6EC017A04F10D
:105990000404E9D109AB0AAF03EB850907EB8503E2
:1059A000083B9FED7B9ADFED798ADDF814B0049314
:1059B0000AEB0C042B4646AE00955AAA02EB830272
:1059C000002B52ED146A4FEA830516DD06EB8302C5
:1059D000394666EE897AB0EE667AFDEEE77A32ED08
:1059E000016AF8EEE77AB242A7EEE87A77EE866AC5
:1059F000BDEEC77AA1EC017AEBD116EE900A5946BA
:105A0000019301F0BBF808EE100AF4EE007A68EE9C
:105A1000277A17EE900A01F003F806EE900AF0EEEE
:105A2000487AB2EE007AE6EEC77ABBF1000F019B2E
:105A3000FDEEE79AB8EEE98A37EEC88A75DD03F124
:105A4000FF3ECBF1080057F82E1041FA00FC0CFA8B
:105A500000F0081ACBF1070219EE901A40FA02F290
:105A60006144002A47F82E0009EE901A65DCB5EE75
:105A7000408AF1EE10FA40F0C580009903F1FF3C36
:105A800061450EDC03F18041013907EB8101002003
:105A900051F80459494540EA0500F9D1002840F081
:105AA000FC80009A013A57F82220002A40F0F0804A
:105AB000049A012552F8041901350029FAD003F19E
:105AC000010E1D447146039A1344029A02EB0E0C18
:105AD0000CF1804C699A0CF1FF3C02EB8C0C1EAA75
:105AE00006EB8E0E02EB8300DCED017A9FED267A49
:105AF000F8EEE77AB8F1000F0CF1040CC0ED007A73
